:100000000C943F000C945C000C945C000C945C001D
:100010000C945C000C945C000C945C000C945C00F0
:100020000C945C000C945C000C945C000C945C00E0
:100030000C945C000C945C000C945C000C945C00D0
:100040000C945C000C945C000C945C000C945C00C0
:100050000C945C000C945C000C945C000C945C00B0
:100060000C945C000C945C0032073B070907DF0628
:100070008B06B3067E0675066807322E30301124D3
:100080001FBECFEFD8E0DEBFCDBF11E0A0E0B1E0F2
:10009000E0EEF1E102C005900D92A231B107D9F76F
:1000A00023E0A2E1B1E001C01D92AB31B207E1F75C
:1000B0000E94F8050C94EE080C940000FF920F9338
:1000C0001F93CF93DF93082FF62E172F8BE30E94F9
:1000D0009804C1EFC00F8C2F0E94980481E00E9409
:1000E000980485E00E94980485E00E94980480E0CE
:1000F0000E94980480E00E9498040051CC2369F08B
:10010000CF2DD12F10E00F5F1F4F0C0F1D1F8991B6
:100110000E949804C017D107D1F7DF91CF911F91AA
:100120000F91FF900895CF93DF938091180384304F
:1001300049F08CE68093190384E080931A03DF91E1
:10014000CF910895809112010E9498048091180324
:10015000882379F0C0E0D0E0FE01E658FF4F84919B
:100160000E94980421968091180390E0C817D9073F
:100170009CF380E980931903DF91CF910895CF928A
:10018000DF92EF92FF920F931F93CF93DF93CDB740
:10019000DEB7A0970FB6F894DEBF0FBECDBF80913B
:1001A00018038132A8F08CE68093190380E28093D3
:1001B0001A03A0960FB6F894DEBF0FBECDBFDF9135
:1001C000CF911F910F91FF90EF90DF90CF90089506
:1001D000809112010E94980440911803442311F168
:1001E000FE0131966F017F0100E010E00E946E0574
:1001F000F70181937F010F5F1F4F4091180350E07B
:10020000041715079CF367E670E0C6010E94C90851
:100210006091180387E890E00E94D30880E98093FA
:100220001903C7CFCE0101966C0140E050E0EBCF3F
:10023000EF92FF920F931F93CF93DF93CDB7DEB76B
:10024000A0970FB6F894DEBF0FBECDBF87E890E051
:100250000E94BB08182F80911803181791F08CE6A4
:100260008093190310931A03A0960FB6F894DEBF7B
:100270000FBECDBFDF91CF911F910F91FF90EF90F7
:100280000895809112010E949804412F50E067E682
:1002900070E0CE0101960E94AB088091180388237C
:1002A00091F0CE0101967C0100E010E0F701819110
:1002B0007F010E9498040F5F1F4F8091180390E008
:1002C000081719079CF380E980931903CDCFCF92CB
:1002D000DF92EF92FF920F931F93CF93DF93CDB7EF
:1002E000DEB7A0970FB6F894DEBF0FBECDBF8091EA
:1002F00018038132A8F08CE68093190380E2809382
:100300001A03A0960FB6F894DEBF0FBECDBFDF91E3
:10031000CF911F910F91FF90EF90DF90CF900895B4
:10032000809112010E94980440911803442311F116
:10033000FE0131966F017F0100E010E00E946E0522
:10034000F70181937F010F5F1F4F4091180350E029
:10035000041715079CF366E470E0C6010E94C90803
:100360006091180386E690E00E94D30880E98093AC
:100370001903C7CFCE0101966C0140E050E0EBCFEE
:10038000EF92FF920F931F93CF93DF93CDB7DEB71A
:10039000A0970FB6F894DEBF0FBECDBF86E690E003
:1003A0000E94BB08182F80911803181791F08CE653
:1003B0008093190310931A03A0960FB6F894DEBF2A
:1003C0000FBECDBFDF91CF911F910F91FF90EF90A6
:1003D0000895809112010E949804412F50E066E434
:1003E00070E0CE0101960E94AB088091180388232B
:1003F00091F0CE0101967C0100E010E0F7018191BF
:100400007F010E9498040F5F1F4F8091180390E0B6
:10041000081719079CF380E980931903CDCFCF9279
:10042000DF92EF92FF920F931F93CF93DF93CDB79D
:10043000DEB7A0970FB6F894DEBF0FBECDBF809198
:1004400018038132A8F08CE68093190380E2809330
:100450001A03A0960FB6F894DEBF0FBECDBFDF9192
:10046000CF911F910F91FF90EF90DF90CF90089563
:10047000809112010E94980440911803442311F1C5
:10048000FE0131966F017F0100E010E00E946E05D1
:10049000F70181937F010F5F1F4F4091180350E0D8
:1004A000041715079CF365E270E0C6010E94C908B5
:1004B0006091180385E490E00E94D30880E980935E
:1004C0001903C7CFCE0101966C0140E050E0EBCF9D
:1004D000EF92FF920F931F93CF93DF93CDB7DEB7C9
:1004E000A0970FB6F894DEBF0FBECDBF85E490E0B5
:1004F0000E94BB08182F80911803181791F08CE602
:100500008093190310931A03A0960FB6F894DEBFD8
:100510000FBECDBFDF91CF911F910F91FF90EF9054
:100520000895809112010E949804412F50E065E2E5
:1005300070E0CE0101960E94AB08809118038823D9
:1005400091F0CE0101967C0100E010E0F70181916D
:100550007F010E9498040F5F1F4F8091180390E065
:10056000081719079CF380E980931903CDCFCF9228
:10057000DF92EF92FF920F931F93CF93DF93CDB74C
:10058000DEB7A0970FB6F894DEBF0FBECDBF809147
:1005900018038132A8F08CE68093190380E28093DF
:1005A0001A03A0960FB6F894DEBF0FBECDBFDF9141
:1005B000CF911F910F91FF90EF90DF90CF90089512
:1005C000809112010E94980440911803442311F174
:1005D000FE0131966F017F0100E010E00E946E0580
:1005E000F70181937F010F5F1F4F4091180350E087
:1005F000041715079CF364E070E0C6010E94C90867
:100600006091180384E290E00E94D30880E980930F
:100610001903C7CFCE0101966C0140E050E0EBCF4B
:10062000EF92FF920F931F93CF93DF93CDB7DEB777
:10063000A0970FB6F894DEBF0FBECDBF84E290E066
:100640000E94BB08182F80911803181791F08CE6B0
:100650008093190310931A03A0960FB6F894DEBF87
:100660000FBECDBFDF91CF911F910F91FF90EF9003
:100670000895809112010E949804412F50E064E097
:1006800070E0CE0101960E94AB0880911803882388
:1006900091F0CE0101967C0100E010E0F70181911C
:1006A0007F010E9498040F5F1F4F8091180390E014
:1006B000081719079CF380E980931903CDCF1F9386
:1006C000CF93DF9380911803843051F08CE68093B0
:1006D000190384E080931A03DF91CF911F9108954D
:1006E000809112010E94980480E090E00E94C3086B
:1006F000EB01182F892F0E949804812F0E949804E3
:100700008D2F0E9498048C2F0E94980480E980937A
:100710001903DF91CF911F910895EF92FF920F93EC
:100720001F93CF93DF9380911803843069F08CE698
:100730008093190384E080931A03DF91CF911F9176
:100740000F91FF90EF900895809112010E949804FC
:100750000E946E05F82E0E946E05D82F0E946E052D
:10076000C82F0E946E05E82E80E090E00E94C3082A
:100770008B019C014F2D50E060E070E0742F6627E4
:1007800055274427D901C8018E0D911DA11DB11D0A
:10079000480F591F6A1F7B1F8D2F90E0A0E0B0E02B
:1007A000DC0199278827480F591F6A1F7B1F8C2F50
:1007B00090E0A0E0B0E0BA2FA92F982F8827480F2B
:1007C000591F6A1F7B1F401751076207730750F4B8
:1007D00081E680931903DF91CF911F910F91FF90D4
:1007E000EF90089580E090E00E94E10880E9809316
:1007F0001903A3CF8F929F92AF92BF92CF92DF92B5
:10080000EF92FF9280911803843079F08CE6809308
:10081000190384E080931A03FF90EF90DF90CF904C
:10082000BF90AF909F908F900895809112010E9489
:1008300098040E946E05882E0E946E05912CA12CB2
:10084000B12CB82CAA249924882490E0A0E0B0E030
:10085000DC0199278827880E991EAA1EBB1E0E94BC
:100860006E05C82E0E946E05D12CE12CF12CFE2CB9
:10087000ED2CDC2CCC24880E911CA11CB11CC80CC6
:10088000D91CEA1CFB1C80E090E00E94C3086C1598
:100890007D058E059F0520F481E680931903BCCF6A
:1008A000AB01BC014C195D096E097F0980E090E045
:1008B0000E94E10880E980931903AECF809118036C
:1008C000843039F08CE68093190384E080931A0316
:1008D000089540E050E0BA0180E090E00E94E10815
:1008E00080E9809319030895CF93DF9300D0CDB7AB
:1008F000DEB78A838A8181708295807F898382EBCB
:1009000090E0FC0180818E32D0F385E290E0298175
:10091000FC01208382EB90E0FC01108282EB90E0EE
:10092000FC01108200000F900F90DF91CF9108958D
:10093000CF93DF9300D000D0CDB7DEB78C838C810E
:100940008B8381EB90E022E0FC01208382EB90E03E
:1009500028E2FC01208385E290E025E230E0F90105
:1009600020812061FC01208384E290E024E230E0D9
:10097000F90120812061FC01208380E00E94740441
:100980001A8219820DC08C810E9474049A818C8114
:1009900089278A838C8186958C8389818F5F89835F
:1009A0008981883080F38A810E94740481E00E94EA
:1009B000740482EB90E0FC0180818E32D0F384E2FB
:1009C00090E024E230E0F90120812F7EFC012083B9
:1009D00085E290E025E230E0F90120812F7EFC01E4
:1009E000208382EB90E0FC0180818D35D0F383E29F
:1009F00090E0FC018081882F90E080719927892BFD
:100A000091F483E290E0FC018081882F90E0807176
:100A10009927892BB1F382EB90E026E1FC0120833A
:100A20008B818C8398CF81EB90E0FC0110820000D9
:100A30000F900F900F900F90DF91CF910895CF936B
:100A4000DF931F92CDB7DEB782EB90E0FC0180818F
:100A50008E32D0F382EB90E0FC01108282EB90E0CA
:100A6000FC01108282EB90E0FC0180818C30D0F39D
:100A700083E290E0FC0180818071898382EB90E0C9
:100A8000FC0180818731D0F383E290E0FC0180811A
:100A9000882F90E080719927982F8981890F898309
:100AA00082EB90E0FC0180818232D0F383E290E01F
:100AB000FC018081882F90E080719927982F89818F
:100AC000890F89838981882F90E0880F991F880F6B
:100AD000991F80780F90DF91CF910895CF93DF9386
:100AE00000D000D0CDB7DEB781EB90E022E0FC0172
:100AF000208384E290E024E230E0F90120812F7E1F
:100B0000FC01208385E290E025E230E0F9012081BC
:100B10002061FC0120831A8283E290E0FC01808145
:100B2000882F90E080719927892BB1F783E290E0BC
:100B3000FC018081882F90E080719927892BB1F783
:100B400082EB90E0FC01108282EB90E0FC011082CD
:100B50001B82198210C00E941F058C838A81982FE6
:100B600096958C81890F8A839B818C8189278B83C1
:100B700089818F5F89838981883068F30E941F058E
:100B8000982F8B8189278B8382EB90E0FC018081F9
:100B90008D35D0F38B818823C9F085E290E025E282
:100BA00030E0F90120812F7EFC01208384E290E077
:100BB00024E230E0F90120812061FC01208382EBF6
:100BC00090E0FC018081823AD0F393CF82EB90E0F9
:100BD000FC0180818B38D0F381EB90E0FC01108226
:100BE0008A810F900F900F900F90DF91CF91089511
:100BF000CF93DF93CDB7DEB7A0970FB6F894DEBFE3
:100C00000FBECDBF80E880BF8FEF85B984B987B9AB
:100C10001AB888B98BB980E68093B60087E88093CC
:100C2000640060E071E08BE00E945E0010921601AB
:100C30001092150110921A030DE6D02E80E9B82EFD
:100C40009CE6F92E20E2C22E3EE6E32E41E6A42EDB
:100C50001BC080911201823009F483C108F461C184
:100C6000833009F4C9C18430B9F5143009F40CC2D9
:100C7000F092190384E080931A038CE60E94980492
:100C800080911A030E9498040E946E0580931401BB
:100C90000E946E05809312010E946E058093970159
:100CA0000E946E05809313010E946E05182F809399
:100CB000180310921A0380911401813831F08238A0
:100CC00041F2E09219038EE6D9CFE09112018E2F06
:100CD00090E08930910520F0D09219038DE6CECFB7
:100CE000FC01EC5CFF4F0C94A508113208F4D4C150
:100CF000F0921903C0921A038CE6C0CF85E490E00D
:100D00000E94BB08181709F4F1C1F09219038093EF
:100D10001A038CE6B3CF86E690E00E94BB08181356
:100D2000F4CF84E00E949804412F50E066E470E024
:100D3000CE0101960E94AB08809118038823D9F157
:100D4000CE0101964C0100E010E0F40181914F01C9
:100D50000E9498040F5F1F4F8091180390E00817BE
:100D600019079CF328C0113218F685E00E949804F8
:100D700040911803442309F4DFC1CE0101964C01D0
:100D800000E010E00E946E05F40181934F010F5FB7
:100D90001F4F4091180350E0041715079CF365E2BC
:100DA00070E0CE0101960E94C9086091180385E4A5
:100DB00090E00E94D308B092190380E95FCF11320E
:100DC00008F096CF83E00E949804409118034423D2
:100DD00009F4B5C1CE0101964C0100E010E00E947B
:100DE0006E05F40181934F010F5F1F4F409118036F
:100DF00050E0041715079CF366E470E0CE010196FD
:100E00000E94C9086091180386E690E00E94D3080A
:100E1000D2CF87E890E00E94BB08181376CF82E01B
:100E20000E949804412F50E067E670E0CE010196E1
:100E30000E94AB0880911803882309F4BCCFCE012F
:100E400001964C0100E010E0F40181914F010E94F5
:100E500098040F5F1F4F8091180390E0081719073F
:100E60009CF3A9CF6CE071E084E090E00E949300D5
:100E70008091190303CF113208F03ACF81E00E942C
:100E8000980440911803442309F45CC1CE010196F3
:100E90004C0100E010E00E946E05F40181934F01C7
:100EA0000F5F1F4F4091180350E0041715079CF384
:100EB00067E670E0CE0101960E94C90860911803B0
:100EC00087E890E00E94D308B092190380E9D6CE5B
:100ED00084E290E00E94BB08181317CF88E00E94BC
:100EE0009804412F50E064E070E0CE0101960E942A
:100EF000AB0880911803882309F45DCFCE010196D9
:100F00004C0100E010E0F40181914F010E9498042F
:100F10000F5F1F4F8091180390E0081719079CF38B
:100F20004ACF813009F0D8CE143009F0A1CE81E04B
:100F30000E94980480E090E00E94C308162F072FBB
:100F4000982E892F0E949804892D0E949804802F42
:100F50000E949804812F0E949804B092190380E99E
:100F60008DCE143009F084CE82E00E9498040E9455
:100F70006E05882E0E946E05082F0E946E05182FA0
:100F80000E946E05982E80E090E00E94C3082B011D
:100F90003C01482D50E060E070E0742F6627552733
:100FA0004427D301C201890D911DA11DB11D480F18
:100FB000591F6A1F7B1F802F90E0A0E0B0E0DC018A
:100FC00099278827480F591F6A1F7B1F812F90E0A0
:100FD000A0E0B0E0BA2FA92F982F8827480F591FFB
:100FE0006A1F7B1F441555056605770508F04FC03D
:100FF000A092190381E642CE143009F039CE83E085
:101000000E9498040E946E05482E0E946E05512C85
:10101000612C712C742C66245524442490E0A0E0AB
:10102000B0E0DC0199278827480E591E6A1E7B1EF6
:101030000E946E05182F0E946E05480E511C611CFF
:10104000711C812F90E0A0E0B0E0BA2FA92F982F5B
:101050008827480E591E6A1E7B1E80E090E00E9481
:10106000C308641575058605970510F2AB01BC0130
:10107000441955096609770980E090E00E94E1086B
:10108000B092190380E9FACD40E050E0BA0180E067
:1010900090E00E94E1088FCE87E00E949804409182
:1010A0001803442309F445C0CE0101964C0100E029
:1010B00010E00E946E05F40181934F010F5F1F4FF6
:1010C0004091180350E0041715079CF364E070E0AA
:1010D000CE0101960E94C9086091180384E290E055
:1010E0000E94D308B092190380E9C8CD86E00E941F
:1010F0009804412F50E065E270E0CE0101960E9415
:10110000AB0880911803882309F455CECE010196CF
:101110004C0100E010E0F40181914F010E9498041D
:101120000F5F1F4F8091180390E0081719079CF379
:1011300042CE40E050E0CACF40E050E030CE40E048
:1011400050E05ACE40E050E0B3CEEE0FFF1F0590C6
:10115000F491E02D0994DC01CB01FC01F999FECF5B
:1011600006C0F2BDE1BDF89A319600B40D9241502F
:101170005040B8F70895F999FECF92BD81BDF89A15
:10118000992780B50895A6E1B0E044E050E00C94C2
:10119000AD08DC01CB0103C02D910E94D408415061
:1011A0005040D0F70895262FF999FECF1FBA92BD6F
:1011B00081BD20BD0FB6F894FA9AF99A0FBE019638
:1011C0000895242F0E94D408252F0E94D4080C943F
:1011D000E9080E94D308272F0C94D408F894FFCF75
:1011E00048656C6C6F20736361726400322E30301E
:0211F0000000FD
:00000001FF
